{
  "contractName": "DappletRegistry",
  "abi": [
    {
      "inputs": [],
      "stateMutability": "nonpayable",
      "type": "constructor"
    },
    {
      "anonymous": false,
      "inputs": [
        {
          "indexed": false,
          "internalType": "string[]",
          "name": "contextIds",
          "type": "string[]"
        },
        {
          "indexed": false,
          "internalType": "bytes32",
          "name": "owner",
          "type": "bytes32"
        },
        {
          "indexed": false,
          "internalType": "uint32",
          "name": "moduleIndex",
          "type": "uint32"
        }
      ],
      "name": "ModuleInfoAdded",
      "type": "event"
    },
    {
      "inputs": [
        {
          "internalType": "string[]",
          "name": "ctxIds",
          "type": "string[]"
        },
        {
          "internalType": "bytes32[]",
          "name": "users",
          "type": "bytes32[]"
        },
        {
          "internalType": "uint32",
          "name": "maxBufLen",
          "type": "uint32"
        }
      ],
      "name": "getModuleInfoBatch",
      "outputs": [
        {
          "components": [
            {
              "internalType": "uint8",
              "name": "moduleType",
              "type": "uint8"
            },
            {
              "internalType": "string",
              "name": "name",
              "type": "string"
            },
            {
              "internalType": "string",
              "name": "title",
              "type": "string"
            },
            {
              "internalType": "string",
              "name": "description",
              "type": "string"
            },
            {
              "internalType": "bytes32",
              "name": "owner",
              "type": "bytes32"
            },
            {
              "internalType": "string[]",
              "name": "interfaces",
              "type": "string[]"
            },
            {
              "components": [
                {
                  "internalType": "bytes32",
                  "name": "hash",
                  "type": "bytes32"
                },
                {
                  "internalType": "bytes[]",
                  "name": "uris",
                  "type": "bytes[]"
                }
              ],
              "internalType": "struct DappletRegistry.StorageRef",
              "name": "icon",
              "type": "tuple"
            },
            {
              "internalType": "uint256",
              "name": "flags",
              "type": "uint256"
            }
          ],
          "internalType": "struct DappletRegistry.ModuleInfo[][]",
          "name": "mod_info",
          "type": "tuple[][]"
        }
      ],
      "stateMutability": "view",
      "type": "function"
    },
    {
      "inputs": [
        {
          "internalType": "string",
          "name": "ctxId",
          "type": "string"
        },
        {
          "internalType": "bytes32[]",
          "name": "users",
          "type": "bytes32[]"
        },
        {
          "internalType": "uint32",
          "name": "maxBufLen",
          "type": "uint32"
        }
      ],
      "name": "getModuleInfo",
      "outputs": [
        {
          "components": [
            {
              "internalType": "uint8",
              "name": "moduleType",
              "type": "uint8"
            },
            {
              "internalType": "string",
              "name": "name",
              "type": "string"
            },
            {
              "internalType": "string",
              "name": "title",
              "type": "string"
            },
            {
              "internalType": "string",
              "name": "description",
              "type": "string"
            },
            {
              "internalType": "bytes32",
              "name": "owner",
              "type": "bytes32"
            },
            {
              "internalType": "string[]",
              "name": "interfaces",
              "type": "string[]"
            },
            {
              "components": [
                {
                  "internalType": "bytes32",
                  "name": "hash",
                  "type": "bytes32"
                },
                {
                  "internalType": "bytes[]",
                  "name": "uris",
                  "type": "bytes[]"
                }
              ],
              "internalType": "struct DappletRegistry.StorageRef",
              "name": "icon",
              "type": "tuple"
            },
            {
              "internalType": "uint256",
              "name": "flags",
              "type": "uint256"
            }
          ],
          "internalType": "struct DappletRegistry.ModuleInfo[]",
          "name": "mod_info",
          "type": "tuple[]"
        }
      ],
      "stateMutability": "view",
      "type": "function"
    },
    {
      "inputs": [
        {
          "internalType": "string",
          "name": "mod_name",
          "type": "string"
        }
      ],
      "name": "getModuleInfoByName",
      "outputs": [
        {
          "components": [
            {
              "internalType": "uint8",
              "name": "moduleType",
              "type": "uint8"
            },
            {
              "internalType": "string",
              "name": "name",
              "type": "string"
            },
            {
              "internalType": "string",
              "name": "title",
              "type": "string"
            },
            {
              "internalType": "string",
              "name": "description",
              "type": "string"
            },
            {
              "internalType": "bytes32",
              "name": "owner",
              "type": "bytes32"
            },
            {
              "internalType": "string[]",
              "name": "interfaces",
              "type": "string[]"
            },
            {
              "components": [
                {
                  "internalType": "bytes32",
                  "name": "hash",
                  "type": "bytes32"
                },
                {
                  "internalType": "bytes[]",
                  "name": "uris",
                  "type": "bytes[]"
                }
              ],
              "internalType": "struct DappletRegistry.StorageRef",
              "name": "icon",
              "type": "tuple"
            },
            {
              "internalType": "uint256",
              "name": "flags",
              "type": "uint256"
            }
          ],
          "internalType": "struct DappletRegistry.ModuleInfo",
          "name": "",
          "type": "tuple"
        }
      ],
      "stateMutability": "view",
      "type": "function"
    },
    {
      "inputs": [
        {
          "internalType": "string[]",
          "name": "contextIds",
          "type": "string[]"
        },
        {
          "components": [
            {
              "internalType": "uint8",
              "name": "moduleType",
              "type": "uint8"
            },
            {
              "internalType": "string",
              "name": "name",
              "type": "string"
            },
            {
              "internalType": "string",
              "name": "title",
              "type": "string"
            },
            {
              "internalType": "string",
              "name": "description",
              "type": "string"
            },
            {
              "internalType": "bytes32",
              "name": "owner",
              "type": "bytes32"
            },
            {
              "internalType": "string[]",
              "name": "interfaces",
              "type": "string[]"
            },
            {
              "components": [
                {
                  "internalType": "bytes32",
                  "name": "hash",
                  "type": "bytes32"
                },
                {
                  "internalType": "bytes[]",
                  "name": "uris",
                  "type": "bytes[]"
                }
              ],
              "internalType": "struct DappletRegistry.StorageRef",
              "name": "icon",
              "type": "tuple"
            },
            {
              "internalType": "uint256",
              "name": "flags",
              "type": "uint256"
            }
          ],
          "internalType": "struct DappletRegistry.ModuleInfo",
          "name": "mInfo",
          "type": "tuple"
        },
        {
          "components": [
            {
              "internalType": "string",
              "name": "branch",
              "type": "string"
            },
            {
              "internalType": "uint8",
              "name": "major",
              "type": "uint8"
            },
            {
              "internalType": "uint8",
              "name": "minor",
              "type": "uint8"
            },
            {
              "internalType": "uint8",
              "name": "patch",
              "type": "uint8"
            },
            {
              "internalType": "uint8",
              "name": "flags",
              "type": "uint8"
            },
            {
              "components": [
                {
                  "internalType": "bytes32",
                  "name": "hash",
                  "type": "bytes32"
                },
                {
                  "internalType": "bytes[]",
                  "name": "uris",
                  "type": "bytes[]"
                }
              ],
              "internalType": "struct DappletRegistry.StorageRef",
              "name": "binary",
              "type": "tuple"
            },
            {
              "components": [
                {
                  "internalType": "string",
                  "name": "name",
                  "type": "string"
                },
                {
                  "internalType": "string",
                  "name": "branch",
                  "type": "string"
                },
                {
                  "internalType": "uint8",
                  "name": "major",
                  "type": "uint8"
                },
                {
                  "internalType": "uint8",
                  "name": "minor",
                  "type": "uint8"
                },
                {
                  "internalType": "uint8",
                  "name": "patch",
                  "type": "uint8"
                }
              ],
              "internalType": "struct DappletRegistry.DependencyDto[]",
              "name": "dependencies",
              "type": "tuple[]"
            },
            {
              "components": [
                {
                  "internalType": "string",
                  "name": "name",
                  "type": "string"
                },
                {
                  "internalType": "string",
                  "name": "branch",
                  "type": "string"
                },
                {
                  "internalType": "uint8",
                  "name": "major",
                  "type": "uint8"
                },
                {
                  "internalType": "uint8",
                  "name": "minor",
                  "type": "uint8"
                },
                {
                  "internalType": "uint8",
                  "name": "patch",
                  "type": "uint8"
                }
              ],
              "internalType": "struct DappletRegistry.DependencyDto[]",
              "name": "interfaces",
              "type": "tuple[]"
            }
          ],
          "internalType": "struct DappletRegistry.VersionInfoDto[]",
          "name": "vInfos",
          "type": "tuple[]"
        },
        {
          "internalType": "bytes32",
          "name": "userId",
          "type": "bytes32"
        }
      ],
      "name": "addModuleInfo",
      "outputs": [],
      "stateMutability": "nonpayable",
      "type": "function"
    },
    {
      "inputs": [
        {
          "internalType": "string",
          "name": "mod_name",
          "type": "string"
        },
        {
          "components": [
            {
              "internalType": "string",
              "name": "branch",
              "type": "string"
            },
            {
              "internalType": "uint8",
              "name": "major",
              "type": "uint8"
            },
            {
              "internalType": "uint8",
              "name": "minor",
              "type": "uint8"
            },
            {
              "internalType": "uint8",
              "name": "patch",
              "type": "uint8"
            },
            {
              "internalType": "uint8",
              "name": "flags",
              "type": "uint8"
            },
            {
              "components": [
                {
                  "internalType": "bytes32",
                  "name": "hash",
                  "type": "bytes32"
                },
                {
                  "internalType": "bytes[]",
                  "name": "uris",
                  "type": "bytes[]"
                }
              ],
              "internalType": "struct DappletRegistry.StorageRef",
              "name": "binary",
              "type": "tuple"
            },
            {
              "components": [
                {
                  "internalType": "string",
                  "name": "name",
                  "type": "string"
                },
                {
                  "internalType": "string",
                  "name": "branch",
                  "type": "string"
                },
                {
                  "internalType": "uint8",
                  "name": "major",
                  "type": "uint8"
                },
                {
                  "internalType": "uint8",
                  "name": "minor",
                  "type": "uint8"
                },
                {
                  "internalType": "uint8",
                  "name": "patch",
                  "type": "uint8"
                }
              ],
              "internalType": "struct DappletRegistry.DependencyDto[]",
              "name": "dependencies",
              "type": "tuple[]"
            },
            {
              "components": [
                {
                  "internalType": "string",
                  "name": "name",
                  "type": "string"
                },
                {
                  "internalType": "string",
                  "name": "branch",
                  "type": "string"
                },
                {
                  "internalType": "uint8",
                  "name": "major",
                  "type": "uint8"
                },
                {
                  "internalType": "uint8",
                  "name": "minor",
                  "type": "uint8"
                },
                {
                  "internalType": "uint8",
                  "name": "patch",
                  "type": "uint8"
                }
              ],
              "internalType": "struct DappletRegistry.DependencyDto[]",
              "name": "interfaces",
              "type": "tuple[]"
            }
          ],
          "internalType": "struct DappletRegistry.VersionInfoDto",
          "name": "vInfo",
          "type": "tuple"
        },
        {
          "internalType": "bytes32",
          "name": "userId",
          "type": "bytes32"
        }
      ],
      "name": "addModuleVersion",
      "outputs": [],
      "stateMutability": "nonpayable",
      "type": "function"
    },
    {
      "inputs": [
        {
          "internalType": "string[]",
          "name": "mod_name",
          "type": "string[]"
        },
        {
          "components": [
            {
              "internalType": "string",
              "name": "branch",
              "type": "string"
            },
            {
              "internalType": "uint8",
              "name": "major",
              "type": "uint8"
            },
            {
              "internalType": "uint8",
              "name": "minor",
              "type": "uint8"
            },
            {
              "internalType": "uint8",
              "name": "patch",
              "type": "uint8"
            },
            {
              "internalType": "uint8",
              "name": "flags",
              "type": "uint8"
            },
            {
              "components": [
                {
                  "internalType": "bytes32",
                  "name": "hash",
                  "type": "bytes32"
                },
                {
                  "internalType": "bytes[]",
                  "name": "uris",
                  "type": "bytes[]"
                }
              ],
              "internalType": "struct DappletRegistry.StorageRef",
              "name": "binary",
              "type": "tuple"
            },
            {
              "components": [
                {
                  "internalType": "string",
                  "name": "name",
                  "type": "string"
                },
                {
                  "internalType": "string",
                  "name": "branch",
                  "type": "string"
                },
                {
                  "internalType": "uint8",
                  "name": "major",
                  "type": "uint8"
                },
                {
                  "internalType": "uint8",
                  "name": "minor",
                  "type": "uint8"
                },
                {
                  "internalType": "uint8",
                  "name": "patch",
                  "type": "uint8"
                }
              ],
              "internalType": "struct DappletRegistry.DependencyDto[]",
              "name": "dependencies",
              "type": "tuple[]"
            },
            {
              "components": [
                {
                  "internalType": "string",
                  "name": "name",
                  "type": "string"
                },
                {
                  "internalType": "string",
                  "name": "branch",
                  "type": "string"
                },
                {
                  "internalType": "uint8",
                  "name": "major",
                  "type": "uint8"
                },
                {
                  "internalType": "uint8",
                  "name": "minor",
                  "type": "uint8"
                },
                {
                  "internalType": "uint8",
                  "name": "patch",
                  "type": "uint8"
                }
              ],
              "internalType": "struct DappletRegistry.DependencyDto[]",
              "name": "interfaces",
              "type": "tuple[]"
            }
          ],
          "internalType": "struct DappletRegistry.VersionInfoDto[]",
          "name": "vInfo",
          "type": "tuple[]"
        },
        {
          "internalType": "bytes32[]",
          "name": "userId",
          "type": "bytes32[]"
        }
      ],
      "name": "addModuleVersionBatch",
      "outputs": [],
      "stateMutability": "nonpayable",
      "type": "function"
    },
    {
      "inputs": [
        {
          "internalType": "string",
          "name": "name",
          "type": "string"
        },
        {
          "internalType": "string",
          "name": "branch",
          "type": "string"
        }
      ],
      "name": "getVersionNumbers",
      "outputs": [
        {
          "internalType": "bytes",
          "name": "",
          "type": "bytes"
        }
      ],
      "stateMutability": "view",
      "type": "function"
    },
    {
      "inputs": [
        {
          "internalType": "string",
          "name": "name",
          "type": "string"
        },
        {
          "internalType": "string",
          "name": "branch",
          "type": "string"
        },
        {
          "internalType": "uint8",
          "name": "major",
          "type": "uint8"
        },
        {
          "internalType": "uint8",
          "name": "minor",
          "type": "uint8"
        },
        {
          "internalType": "uint8",
          "name": "patch",
          "type": "uint8"
        }
      ],
      "name": "getVersionInfo",
      "outputs": [
        {
          "components": [
            {
              "internalType": "string",
              "name": "branch",
              "type": "string"
            },
            {
              "internalType": "uint8",
              "name": "major",
              "type": "uint8"
            },
            {
              "internalType": "uint8",
              "name": "minor",
              "type": "uint8"
            },
            {
              "internalType": "uint8",
              "name": "patch",
              "type": "uint8"
            },
            {
              "internalType": "uint8",
              "name": "flags",
              "type": "uint8"
            },
            {
              "components": [
                {
                  "internalType": "bytes32",
                  "name": "hash",
                  "type": "bytes32"
                },
                {
                  "internalType": "bytes[]",
                  "name": "uris",
                  "type": "bytes[]"
                }
              ],
              "internalType": "struct DappletRegistry.StorageRef",
              "name": "binary",
              "type": "tuple"
            },
            {
              "components": [
                {
                  "internalType": "string",
                  "name": "name",
                  "type": "string"
                },
                {
                  "internalType": "string",
                  "name": "branch",
                  "type": "string"
                },
                {
                  "internalType": "uint8",
                  "name": "major",
                  "type": "uint8"
                },
                {
                  "internalType": "uint8",
                  "name": "minor",
                  "type": "uint8"
                },
                {
                  "internalType": "uint8",
                  "name": "patch",
                  "type": "uint8"
                }
              ],
              "internalType": "struct DappletRegistry.DependencyDto[]",
              "name": "dependencies",
              "type": "tuple[]"
            },
            {
              "components": [
                {
                  "internalType": "string",
                  "name": "name",
                  "type": "string"
                },
                {
                  "internalType": "string",
                  "name": "branch",
                  "type": "string"
                },
                {
                  "internalType": "uint8",
                  "name": "major",
                  "type": "uint8"
                },
                {
                  "internalType": "uint8",
                  "name": "minor",
                  "type": "uint8"
                },
                {
                  "internalType": "uint8",
                  "name": "patch",
                  "type": "uint8"
                }
              ],
              "internalType": "struct DappletRegistry.DependencyDto[]",
              "name": "interfaces",
              "type": "tuple[]"
            }
          ],
          "internalType": "struct DappletRegistry.VersionInfoDto",
          "name": "dto",
          "type": "tuple"
        },
        {
          "internalType": "uint8",
          "name": "moduleType",
          "type": "uint8"
        }
      ],
      "stateMutability": "view",
      "type": "function"
    },
    {
      "inputs": [
        {
          "internalType": "string",
          "name": "mod_name",
          "type": "string"
        },
        {
          "internalType": "bytes32",
          "name": "oldUserId",
          "type": "bytes32"
        },
        {
          "internalType": "bytes32",
          "name": "newUserId",
          "type": "bytes32"
        }
      ],
      "name": "transferOwnership",
      "outputs": [],
      "stateMutability": "nonpayable",
      "type": "function"
    },
    {
      "inputs": [
        {
          "internalType": "string",
          "name": "mod_name",
          "type": "string"
        },
        {
          "internalType": "string",
          "name": "contextId",
          "type": "string"
        },
        {
          "internalType": "bytes32",
          "name": "userId",
          "type": "bytes32"
        }
      ],
      "name": "addContextId",
      "outputs": [],
      "stateMutability": "nonpayable",
      "type": "function"
    },
    {
      "inputs": [
        {
          "internalType": "string",
          "name": "mod_name",
          "type": "string"
        },
        {
          "internalType": "string",
          "name": "contextId",
          "type": "string"
        },
        {
          "internalType": "bytes32",
          "name": "userId",
          "type": "bytes32"
        }
      ],
      "name": "removeContextId",
      "outputs": [],
      "stateMutability": "nonpayable",
      "type": "function"
    }
  ],
  "bytecode": "0x608060405234801561001057600080fd5b50600460018160018154018082558091505003906000526020600020905050615f16806200003f6000396000f3fe608060405234801561001057600080fd5b50600436106100a95760003560e01c80637c836291116100715780637c83629114610177578063a54d1cc8146101a7578063b394c178146101c3578063cbbf6f1b146101f3578063db0ce4af1461020f578063dc3b22331461022b576100a9565b80631ed885d0146100ae5780632ac43f9d146100ca57806355f0a672146100fa5780637071ce161461012b5780637a3707ba1461015b575b600080fd5b6100c860048036038101906100c3919061492a565b610247565b005b6100e460048036038101906100df9190614a6c565b6102f9565b6040516100f19190615a7f565b60405180910390f35b610114600480360381019061010f9190614c7e565b6107f8565b604051610122929190615aa1565b60405180910390f35b610145600480360381019061014091906148ab565b611c6d565b60405161015291906158fb565b60405180910390f35b61017560048036038101906101709190614bff565b611d12565b005b610191600480360381019061018c9190614aad565b611fc1565b60405161019e919061595b565b60405180910390f35b6101c160048036038101906101bc9190614d25565b61250d565b005b6101dd60048036038101906101d89190614b93565b612670565b6040516101ea919061597d565b60405180910390f35b61020d60048036038101906102089190614b2c565b612753565b005b61022960048036038101906102249190614bff565b6128c0565b005b610245600480360381019061024091906149c1565b612a9f565b005b81518351148015610259575080518251145b610298576040517f08c379a000000000000000000000000000000000000000000000000000000000815260040161028f90615a3f565b60405180910390fd5b60005b83518110156102f3576102e88482815181106102b357fe5b60200260200101518483815181106102c757fe5b60200260200101518484815181106102db57fe5b602002602001015161250d565b80600101905061029b565b50505050565b610301613d62565b600082604051602001610314919061582a565b60405160208183030381529060405280519060200120905060006003600083815260200190815260200160002060009054906101000a900463ffffffff1663ffffffff161415610399576040517f08c379a0000000000000000000000000000000000000000000000000000000008152600401610390906159ff565b60405180910390fd5b60046003600083815260200190815260200160002060009054906101000a900463ffffffff1663ffffffff16815481106103cf57fe5b9060005260206000209060090201604051806101000160405290816000820160009054906101000a900460ff1660ff1660ff168152602001600182018054600181600116156101000203166002900480601f01602080910402602001604051908101604052809291908181526020018280546001816001161561010002031660029004801561049f5780601f106104745761010080835404028352916020019161049f565b820191906000526020600020905b81548152906001019060200180831161048257829003601f168201915b50505050508152602001600282018054600181600116156101000203166002900480601f0160208091040260200160405190810160405280929190818152602001828054600181600116156101000203166002900480156105415780601f1061051657610100808354040283529160200191610541565b820191906000526020600020905b81548152906001019060200180831161052457829003601f168201915b50505050508152602001600382018054600181600116156101000203166002900480601f0160208091040260200160405190810160405280929190818152602001828054600181600116156101000203166002900480156105e35780601f106105b8576101008083540402835291602001916105e3565b820191906000526020600020905b8154815290600101906020018083116105c657829003601f168201915b505050505081526020016004820154815260200160058201805480602002602001604051908101604052809291908181526020016000905b828210156106d7578382906000526020600020018054600181600116156101000203166002900480601f0160208091040260200160405190810160405280929190818152602001828054600181600116156101000203166002900480156106c35780601f10610698576101008083540402835291602001916106c3565b820191906000526020600020905b8154815290600101906020018083116106a657829003601f168201915b50505050508152602001906001019061061b565b505050508152602001600682016040518060400160405290816000820154815260200160018201805480602002602001604051908101604052809291908181526020016000905b828210156107da578382906000526020600020018054600181600116156101000203166002900480601f0160208091040260200160405190810160405280929190818152602001828054600181600116156101000203166002900480156107c65780601f1061079b576101008083540402835291602001916107c6565b820191906000526020600020905b8154815290600101906020018083116107a957829003601f168201915b50505050508152602001906001019061071e565b50505050815250508152602001600882015481525050915050919050565b610800613db3565b600080878787878760405160200161081c95949392919061588d565b60405160208183030381529060405280519060200120905061083c613e0a565b600160008381526020019081526020016000206040518061012001604052908160008201548152602001600182018054600181600116156101000203166002900480601f0160208091040260200160405190810160405280929190818152602001828054600181600116156101000203166002900480156108fe5780601f106108d3576101008083540402835291602001916108fe565b820191906000526020600020905b8154815290600101906020018083116108e157829003601f168201915b505050505081526020016002820160009054906101000a900460ff1660ff1660ff1681526020016002820160019054906101000a900460ff1660ff1660ff1681526020016002820160029054906101000a900460ff1660ff1660ff1681526020016002820160039054906101000a900460ff1660ff1660ff168152602001600382016040518060400160405290816000820154815260200160018201805480602002602001604051908101604052809291908181526020016000905b82821015610a76578382906000526020600020018054600181600116156101000203166002900480601f016020809104026020016040519081016040528092919081815260200182805460018160011615610100020316600290048015610a625780601f10610a3757610100808354040283529160200191610a62565b820191906000526020600020905b815481529060010190602001808311610a4557829003601f168201915b5050505050815260200190600101906109ba565b5050505081525050815260200160058201805480602002602001604051908101604052809291908181526020018280548015610ad157602002820191906000526020600020905b815481526020019060010190808311610abd575b5050505050815260200160068201805480602002602001604051908101604052809291908181526020018280548015610b2957602002820191906000526020600020905b815481526020019060010190808311610b15575b5050505050815250509050600081600001511415610b7c576040517f08c379a0000000000000000000000000000000000000000000000000000000008152600401610b7390615a1f565b60405180910390fd5b60608160e001515167ffffffffffffffff81118015610b9a57600080fd5b50604051908082528060200260200182016040528015610bd457816020015b610bc1613e68565b815260200190600190039081610bb95790505b50905060005b8260e00151518110156113a257610bef613e0a565b600160008560e001518481518110610c0357fe5b602002602001015181526020019081526020016000206040518061012001604052908160008201548152602001600182018054600181600116156101000203166002900480601f016020809104026020016040519081016040528092919081815260200182805460018160011615610100020316600290048015610cc85780601f10610c9d57610100808354040283529160200191610cc8565b820191906000526020600020905b815481529060010190602001808311610cab57829003601f168201915b505050505081526020016002820160009054906101000a900460ff1660ff1660ff1681526020016002820160019054906101000a900460ff1660ff1660ff1681526020016002820160029054906101000a900460ff1660ff1660ff1681526020016002820160039054906101000a900460ff1660ff1660ff168152602001600382016040518060400160405290816000820154815260200160018201805480602002602001604051908101604052809291908181526020016000905b82821015610e40578382906000526020600020018054600181600116156101000203166002900480601f016020809104026020016040519081016040528092919081815260200182805460018160011615610100020316600290048015610e2c5780601f10610e0157610100808354040283529160200191610e2c565b820191906000526020600020905b815481529060010190602001808311610e0f57829003601f168201915b505050505081526020019060010190610d84565b5050505081525050815260200160058201805480602002602001604051908101604052809291908181526020018280548015610e9b57602002820191906000526020600020905b815481526020019060010190808311610e87575b5050505050815260200160068201805480602002602001604051908101604052809291908181526020018280548015610ef357602002820191906000526020600020905b815481526020019060010190808311610edf575b5050505050815250509050610f06613d62565b6004826000015181548110610f1757fe5b9060005260206000209060090201604051806101000160405290816000820160009054906101000a900460ff1660ff1660ff168152602001600182018054600181600116156101000203166002900480601f016020809104026020016040519081016040528092919081815260200182805460018160011615610100020316600290048015610fe75780601f10610fbc57610100808354040283529160200191610fe7565b820191906000526020600020905b815481529060010190602001808311610fca57829003601f168201915b50505050508152602001600282018054600181600116156101000203166002900480601f0160208091040260200160405190810160405280929190818152602001828054600181600116156101000203166002900480156110895780601f1061105e57610100808354040283529160200191611089565b820191906000526020600020905b81548152906001019060200180831161106c57829003601f168201915b50505050508152602001600382018054600181600116156101000203166002900480601f01602080910402602001604051908101604052809291908181526020018280546001816001161561010002031660029004801561112b5780601f106111005761010080835404028352916020019161112b565b820191906000526020600020905b81548152906001019060200180831161110e57829003601f168201915b505050505081526020016004820154815260200160058201805480602002602001604051908101604052809291908181526020016000905b8282101561121f578382906000526020600020018054600181600116156101000203166002900480601f01602080910402602001604051908101604052809291908181526020018280546001816001161561010002031660029004801561120b5780601f106111e05761010080835404028352916020019161120b565b820191906000526020600020905b8154815290600101906020018083116111ee57829003601f168201915b505050505081526020019060010190611163565b505050508152602001600682016040518060400160405290816000820154815260200160018201805480602002602001604051908101604052809291908181526020016000905b82821015611322578382906000526020600020018054600181600116156101000203166002900480601f01602080910402602001604051908101604052809291908181526020018280546001816001161561010002031660029004801561130e5780601f106112e35761010080835404028352916020019161130e565b820191906000526020600020905b8154815290600101906020018083116112f157829003601f168201915b505050505081526020019060010190611266565b5050505081525050815260200160088201548152505090506040518060a001604052808260200151815260200183602001518152602001836040015160ff168152602001836060015160ff168152602001836080015160ff1681525084848151811061138a57fe5b60200260200101819052505050806001019050610bda565b5060608261010001515167ffffffffffffffff811180156113c257600080fd5b506040519080825280602002602001820160405280156113fc57816020015b6113e9613e68565b8152602001906001900390816113e15790505b50905060005b83610100015151811015611bcc57611418613e0a565b60016000866101000151848151811061142d57fe5b602002602001015181526020019081526020016000206040518061012001604052908160008201548152602001600182018054600181600116156101000203166002900480601f0160208091040260200160405190810160405280929190818152602001828054600181600116156101000203166002900480156114f25780601f106114c7576101008083540402835291602001916114f2565b820191906000526020600020905b8154815290600101906020018083116114d557829003601f168201915b505050505081526020016002820160009054906101000a900460ff1660ff1660ff1681526020016002820160019054906101000a900460ff1660ff1660ff1681526020016002820160029054906101000a900460ff1660ff1660ff1681526020016002820160039054906101000a900460ff1660ff1660ff168152602001600382016040518060400160405290816000820154815260200160018201805480602002602001604051908101604052809291908181526020016000905b8282101561166a578382906000526020600020018054600181600116156101000203166002900480601f0160208091040260200160405190810160405280929190818152602001828054600181600116156101000203166002900480156116565780601f1061162b57610100808354040283529160200191611656565b820191906000526020600020905b81548152906001019060200180831161163957829003601f168201915b5050505050815260200190600101906115ae565b50505050815250508152602001600582018054806020026020016040519081016040528092919081815260200182805480156116c557602002820191906000526020600020905b8154815260200190600101908083116116b1575b505050505081526020016006820180548060200260200160405190810160405280929190818152602001828054801561171d57602002820191906000526020600020905b815481526020019060010190808311611709575b5050505050815250509050611730613d62565b600482600001518154811061174157fe5b9060005260206000209060090201604051806101000160405290816000820160009054906101000a900460ff1660ff1660ff168152602001600182018054600181600116156101000203166002900480601f0160208091040260200160405190810160405280929190818152602001828054600181600116156101000203166002900480156118115780601f106117e657610100808354040283529160200191611811565b820191906000526020600020905b8154815290600101906020018083116117f457829003601f168201915b50505050508152602001600282018054600181600116156101000203166002900480601f0160208091040260200160405190810160405280929190818152602001828054600181600116156101000203166002900480156118b35780601f10611888576101008083540402835291602001916118b3565b820191906000526020600020905b81548152906001019060200180831161189657829003601f168201915b50505050508152602001600382018054600181600116156101000203166002900480601f0160208091040260200160405190810160405280929190818152602001828054600181600116156101000203166002900480156119555780601f1061192a57610100808354040283529160200191611955565b820191906000526020600020905b81548152906001019060200180831161193857829003601f168201915b505050505081526020016004820154815260200160058201805480602002602001604051908101604052809291908181526020016000905b82821015611a49578382906000526020600020018054600181600116156101000203166002900480601f016020809104026020016040519081016040528092919081815260200182805460018160011615610100020316600290048015611a355780601f10611a0a57610100808354040283529160200191611a35565b820191906000526020600020905b815481529060010190602001808311611a1857829003601f168201915b50505050508152602001906001019061198d565b505050508152602001600682016040518060400160405290816000820154815260200160018201805480602002602001604051908101604052809291908181526020016000905b82821015611b4c578382906000526020600020018054600181600116156101000203166002900480601f016020809104026020016040519081016040528092919081815260200182805460018160011615610100020316600290048015611b385780601f10611b0d57610100808354040283529160200191611b38565b820191906000526020600020905b815481529060010190602001808311611b1b57829003601f168201915b505050505081526020019060010190611a90565b5050505081525050815260200160088201548152505090506040518060a001604052808260200151815260200183602001518152602001836040015160ff168152602001836060015160ff168152602001836080015160ff16815250848481518110611bb457fe5b60200260200101819052505050806001019050611402565b5060405180610100016040528084602001518152602001846040015160ff168152602001846060015160ff168152602001846080015160ff1681526020018460a0015160ff1681526020018460c0015181526020018381526020018281525095506004836000015181548110611c3e57fe5b906000526020600020906009020160000160009054906101000a900460ff169450505050509550959350505050565b6060835167ffffffffffffffff81118015611c8757600080fd5b50604051908082528060200260200182016040528015611cbb57816020015b6060815260200190600190039081611ca65790505b50905060005b8451811015611d0a57611ce8858281518110611cd957fe5b60200260200101518585611fc1565b828281518110611cf457fe5b6020026020010181905250806001019050611cc1565b509392505050565b611d1b81612e09565b611d2457600080fd5b60008060001b8214611d365781611d51565b3373ffffffffffffffffffffffffffffffffffffffff1660001b5b9050600084604051602001611d66919061582a565b60405160208183030381529060405280519060200120905060006003600083815260200190815260200160002060009054906101000a900463ffffffff16905060008163ffffffff161415611df0576040517f08c379a0000000000000000000000000000000000000000000000000000000008152600401611de7906159ff565b60405180910390fd5b600060048263ffffffff1681548110611e0557fe5b9060005260206000209060090201905083816004015414611e5b576040517f08c379a0000000000000000000000000000000000000000000000000000000008152600401611e52906159df565b60405180910390fd5b60008685604051602001611e70929190615841565b604051602081830303815290604052805190602001209050600060026000838152602001908152602001600020905060005b8180549050811015611fb5578463ffffffff16828281548110611ec157fe5b90600052602060002090600891828204019190066004029054906101000a900463ffffffff1663ffffffff161415611faa5781600183805490500381548110611f0657fe5b90600052602060002090600891828204019190066004029054906101000a900463ffffffff16828281548110611f3857fe5b90600052602060002090600891828204019190066004026101000a81548163ffffffff021916908363ffffffff16021790555081805480611f7557fe5b60019003818190600052602060002090600891828204019190066004026101000a81549063ffffffff02191690559055611fb5565b806001019050611ea2565b50505050505050505050565b60608060008363ffffffff1611611fda576103e8611fdc565b825b63ffffffff1667ffffffffffffffff81118015611ff857600080fd5b506040519080825280602002602001820160405280156120275781602001602082028036833780820191505090505b50905060006120398686846000612e19565b90508067ffffffffffffffff8111801561205257600080fd5b5060405190808252806020026020018201604052801561208c57816020015b612079613d62565b8152602001906001900390816120715790505b50925060005b818110156125035760008382815181106120a857fe5b60200260200101519050600481815481106120bf57fe5b9060005260206000209060090201604051806101000160405290816000820160009054906101000a900460ff1660ff1660ff168152602001600182018054600181600116156101000203166002900480601f01602080910402602001604051908101604052809291908181526020018280546001816001161561010002031660029004801561218f5780601f106121645761010080835404028352916020019161218f565b820191906000526020600020905b81548152906001019060200180831161217257829003601f168201915b50505050508152602001600282018054600181600116156101000203166002900480601f0160208091040260200160405190810160405280929190818152602001828054600181600116156101000203166002900480156122315780601f1061220657610100808354040283529160200191612231565b820191906000526020600020905b81548152906001019060200180831161221457829003601f168201915b50505050508152602001600382018054600181600116156101000203166002900480601f0160208091040260200160405190810160405280929190818152602001828054600181600116156101000203166002900480156122d35780601f106122a8576101008083540402835291602001916122d3565b820191906000526020600020905b8154815290600101906020018083116122b657829003601f168201915b505050505081526020016004820154815260200160058201805480602002602001604051908101604052809291908181526020016000905b828210156123c7578382906000526020600020018054600181600116156101000203166002900480601f0160208091040260200160405190810160405280929190818152602001828054600181600116156101000203166002900480156123b35780601f10612388576101008083540402835291602001916123b3565b820191906000526020600020905b81548152906001019060200180831161239657829003601f168201915b50505050508152602001906001019061230b565b505050508152602001600682016040518060400160405290816000820154815260200160018201805480602002602001604051908101604052809291908181526020016000905b828210156124ca578382906000526020600020018054600181600116156101000203166002900480601f0160208091040260200160405190810160405280929190818152602001828054600181600116156101000203166002900480156124b65780601f1061248b576101008083540402835291602001916124b6565b820191906000526020600020905b81548152906001019060200180831161249957829003601f168201915b50505050508152602001906001019061240e565b505050508152505081526020016008820154815250508583815181106124ec57fe5b602002602001018190525050806001019050612092565b5050509392505050565b61251681612e09565b61251f57600080fd5b60008060001b8214612531578161254c565b3373ffffffffffffffffffffffffffffffffffffffff1660001b5b9050600084604051602001612561919061582a565b60405160208183030381529060405280519060200120905060006003600083815260200190815260200160002060009054906101000a900463ffffffff16905060008163ffffffff1614156125eb576040517f08c379a00000000000000000000000000000000000000000000000000000000081526004016125e2906159ff565b60405180910390fd5b600060048263ffffffff168154811061260057fe5b9060005260206000209060090201905083816004015414612656576040517f08c379a000000000000000000000000000000000000000000000000000000000815260040161264d906159df565b60405180910390fd5b6126678263ffffffff168888613410565b50505050505050565b606060008383604051602001612687929190615869565b6040516020818303038152906040528051906020012090506000808281526020019081526020016000208054600181600116156101000203166002900480601f0160208091040260200160405190810160405280929190818152602001828054600181600116156101000203166002900480156127455780601f1061271a57610100808354040283529160200191612745565b820191906000526020600020905b81548152906001019060200180831161272857829003601f168201915b505050505091505092915050565b61275c82612e09565b61276557600080fd5b61276e81612e09565b61277757600080fd5b60008060001b831461278957826127a4565b3373ffffffffffffffffffffffffffffffffffffffff1660001b5b90506000846040516020016127b9919061582a565b60405160208183030381529060405280519060200120905060006003600083815260200190815260200160002060009054906101000a900463ffffffff16905060008163ffffffff161415612843576040517f08c379a000000000000000000000000000000000000000000000000000000000815260040161283a906159ff565b60405180910390fd5b600060048263ffffffff168154811061285857fe5b90600052602060002090600902019050838160040154146128ae576040517f08c379a00000000000000000000000000000000000000000000000000000000081526004016128a5906159df565b60405180910390fd5b84816004018190555050505050505050565b6128c981612e09565b6128d257600080fd5b60008060001b82146128e457816128ff565b3373ffffffffffffffffffffffffffffffffffffffff1660001b5b9050600084604051602001612914919061582a565b60405160208183030381529060405280519060200120905060006003600083815260200190815260200160002060009054906101000a900463ffffffff16905060008163ffffffff16141561299e576040517f08c379a0000000000000000000000000000000000000000000000000000000008152600401612995906159ff565b60405180910390fd5b600060048263ffffffff16815481106129b357fe5b9060005260206000209060090201905083816004015414612a09576040517f08c379a0000000000000000000000000000000000000000000000000000000008152600401612a00906159df565b60405180910390fd5b60008685604051602001612a1e929190615841565b604051602081830303815290604052805190602001209050600260008281526020019081526020016000208390806001815401808255809150506001900390600052602060002090600891828204019190066004029091909190916101000a81548163ffffffff021916908363ffffffff1602179055505050505050505050565b612aa881612e09565b612ab157600080fd5b60008360200151604051602001612ac8919061582a565b60405160208183030381529060405280519060200120905060006003600083815260200190815260200160002060009054906101000a900463ffffffff1663ffffffff1614612b4c576040517f08c379a0000000000000000000000000000000000000000000000000000000008152600401612b4390615a5f565b60405180910390fd5b60008060001b8314612b5e5782612b79565b3373ffffffffffffffffffffffffffffffffffffffff1660001b5b905080856080018181525050600485908060018154018082558091505060019003906000526020600020906009020160009091909190915060008201518160000160006101000a81548160ff021916908360ff1602179055506020820151816001019080519060200190612bee929190613ea0565b506040820151816002019080519060200190612c0b929190613ea0565b506060820151816003019080519060200190612c28929190613ea0565b506080820151816004015560a0820151816005019080519060200190612c4f929190613f20565b5060c082015181600601600082015181600001556020820151816001019080519060200190612c7f929190613f80565b50505060e08201518160080155505060006001600480549050039050806003600085815260200190815260200160002060006101000a81548163ffffffff021916908363ffffffff16021790555060005b8751811015612d84576000888281518110612ce757fe5b602002602001015184604051602001612d01929190615841565b604051602081830303815290604052805190602001209050600260008281526020019081526020016000208390806001815401808255809150506001900390600052602060002090600891828204019190066004029091909190916101000a81548163ffffffff021916908363ffffffff16021790555050806001019050612cd0565b507fd0dd56f07da65e6198b6bee16c62faeecfbcf310eef7fb0ee83fe9ec30b55767878383604051612db89392919061591d565b60405180910390a160005b8551811015612dff57612df48263ffffffff168860200151888481518110612de757fe5b6020026020010151613410565b806001019050612dc3565b5050505050505050565b60008060001b8210159050919050565b60008082905060005b855181101561340357600087878381518110612e3a57fe5b6020026020010151604051602001612e53929190615841565b604051602081830303815290604052805190602001209050606060026000838152602001908152602001600020805480602002602001604051908101604052809291908181526020018280548015612ef657602002820191906000526020600020906000905b82829054906101000a900463ffffffff1663ffffffff1681526020019060040190602082600301049283019260010382029150808411612eb95790505b50505050509050600084905060005b82518110156133f4576000838281518110612f1c57fe5b602002602001015163ffffffff16905060005b83811015612f6257818b8281518110612f4457fe5b60200260200101511415612f5757612f62565b806001019050612f2f565b838114156133e757818b89806001019a5081518110612f7d57fe5b602002602001018181525050612f91613d62565b60048381548110612f9e57fe5b9060005260206000209060090201604051806101000160405290816000820160009054906101000a900460ff1660ff1660ff168152602001600182018054600181600116156101000203166002900480601f01602080910402602001604051908101604052809291908181526020018280546001816001161561010002031660029004801561306e5780601f106130435761010080835404028352916020019161306e565b820191906000526020600020905b81548152906001019060200180831161305157829003601f168201915b50505050508152602001600282018054600181600116156101000203166002900480601f0160208091040260200160405190810160405280929190818152602001828054600181600116156101000203166002900480156131105780601f106130e557610100808354040283529160200191613110565b820191906000526020600020905b8154815290600101906020018083116130f357829003601f168201915b50505050508152602001600382018054600181600116156101000203166002900480601f0160208091040260200160405190810160405280929190818152602001828054600181600116156101000203166002900480156131b25780601f10613187576101008083540402835291602001916131b2565b820191906000526020600020905b81548152906001019060200180831161319557829003601f168201915b505050505081526020016004820154815260200160058201805480602002602001604051908101604052809291908181526020016000905b828210156132a6578382906000526020600020018054600181600116156101000203166002900480601f0160208091040260200160405190810160405280929190818152602001828054600181600116156101000203166002900480156132925780601f1061326757610100808354040283529160200191613292565b820191906000526020600020905b81548152906001019060200180831161327557829003601f168201915b5050505050815260200190600101906131ea565b505050508152602001600682016040518060400160405290816000820154815260200160018201805480602002602001604051908101604052809291908181526020016000905b828210156133a9578382906000526020600020018054600181600116156101000203166002900480601f0160208091040260200160405190810160405280929190818152602001828054600181600116156101000203166002900480156133955780601f1061336a57610100808354040283529160200191613395565b820191906000526020600020905b81548152906001019060200180831161337857829003601f168201915b5050505050815260200190600101906132ed565b5050505081525050815260200160088201548152505090506133d181602001518e8e8c612e19565b98506133e38160a001518e8e8c613d17565b9850505b5050806001019050612f05565b50505050806001019050612e22565b5080915050949350505050565b60608160c001515167ffffffffffffffff8111801561342e57600080fd5b5060405190808252806020026020018201604052801561345d5781602001602082028036833780820191505090505b50905060005b8260c001515181101561355957613478613e68565b8360c00151828151811061348857fe5b602002602001015190506000816000015182602001518360400151846060015185608001516040516020016134c195949392919061588d565b604051602081830303815290604052805190602001209050600060016000838152602001908152602001600020600001541415613533576040517f08c379a000000000000000000000000000000000000000000000000000000000815260040161352a906159bf565b60405180910390fd5b8084848151811061354057fe5b6020026020010181815250505050806001019050613463565b5060608260e001515167ffffffffffffffff8111801561357857600080fd5b506040519080825280602002602001820160405280156135a75781602001602082028036833780820191505090505b50905060005b8360e00151518110156137da576135c2613e68565b8460e0015182815181106135d257fe5b6020026020010151905060008160000151826020015183604001518460600151856080015160405160200161360b95949392919061588d565b60405160208183030381529060405280519060200120905060006001600083815260200190815260200160002060000154141561367d576040517f08c379a00000000000000000000000000000000000000000000000000000000081526004016136749061599f565b60405180910390fd5b8084848151811061368a57fe5b6020026020010181815250506000805b60048a815481106136a757fe5b9060005260206000209060090201600501805490508110156137615783600001516040516020016136d8919061582a565b6040516020818303038152906040528051906020012060048b815481106136fb57fe5b9060005260206000209060090201600501828154811061371757fe5b9060005260206000200160405160200161373191906158e4565b6040516020818303038152906040528051906020012014156137565760019150613761565b80600101905061369a565b506000151581151514156137cc576004898154811061377c57fe5b906000526020600020906009020160050183600001519080600181540180825580915050600190039060005260206000200160009091909190915090805190602001906137ca929190613ea0565b505b5050508060010190506135ad565b506137e3613e0a565b60405180610120016040528087815260200185600001518152602001856020015160ff168152602001856040015160ff168152602001856060015160ff168152602001856080015160ff1681526020018560a001518152602001848152602001838152509050600085856000015186602001518760400151886060015160405160200161387495949392919061588d565b60405160208183030381529060405280519060200120905081600160008381526020019081526020016000206000820151816000015560208201518160010190805190602001906138c6929190613ea0565b5060408201518160020160006101000a81548160ff021916908360ff16021790555060608201518160020160016101000a81548160ff021916908360ff16021790555060808201518160020160026101000a81548160ff021916908360ff16021790555060a08201518160020160036101000a81548160ff021916908360ff16021790555060c08201518160030160008201518160000155602082015181600101908051906020019061397a929190613f80565b50505060e0820151816005019080519060200190613999929190613fe0565b506101008201518160060190805190602001906139b7929190613fe0565b5090505060008683602001516040516020016139d4929190615869565b604051602081830303815290604052805190602001209050600080828152602001908152602001600020836040015160f81b90808054603f811680603e8114613a375760028301845560018316613a29578192505b600160028404019350613a51565b83600052602060002060ff19841681556041855560209450505b50505060019003815460011615613a775790600052602060002090602091828204019190065b909190919091601f036101000a81548160ff021916907f010000000000000000000000000000000000000000000000000000000000000084040217905550600080828152602001908152602001600020836060015160f81b90808054603f811680603e8114613b005760028301845560018316613af2578192505b600160028404019350613b1a565b83600052602060002060ff19841681556041855560209450505b50505060019003815460011615613b405790600052602060002090602091828204019190065b909190919091601f036101000a81548160ff021916907f010000000000000000000000000000000000000000000000000000000000000084040217905550600080828152602001908152602001600020836080015160f81b90808054603f811680603e8114613bc95760028301845560018316613bbb578192505b600160028404019350613be3565b83600052602060002060ff19841681556041855560209450505b50505060019003815460011615613c095790600052602060002090602091828204019190065b909190919091601f036101000a81548160ff021916907f010000000000000000000000000000000000000000000000000000000000000084040217905550600080828152602001908152602001600020600060f81b90808054603f811680603e8114613c8f5760028301845560018316613c81578192505b600160028404019350613ca9565b83600052602060002060ff19841681556041855560209450505b50505060019003815460011615613ccf5790600052602060002090602091828204019190065b909190919091601f036101000a81548160ff021916907f0100000000000000000000000000000000000000000000000000000000000000840402179055505050505050505050565b60008082905060005b8651811015613d5557613d48878281518110613d3857fe5b6020026020010151878785612e19565b9150806001019050613d20565b5080915050949350505050565b604051806101000160405280600060ff1681526020016060815260200160608152602001606081526020016000801916815260200160608152602001613da661402d565b8152602001600081525090565b60405180610100016040528060608152602001600060ff168152602001600060ff168152602001600060ff168152602001600060ff168152602001613df661402d565b815260200160608152602001606081525090565b6040518061012001604052806000815260200160608152602001600060ff168152602001600060ff168152602001600060ff168152602001600060ff168152602001613e5461402d565b815260200160608152602001606081525090565b6040518060a001604052806060815260200160608152602001600060ff168152602001600060ff168152602001600060ff1681525090565b828054600181600116156101000203166002900490600052602060002090601f016020900481019282601f10613ee157805160ff1916838001178555613f0f565b82800160010185558215613f0f579182015b82811115613f0e578251825591602001919060010190613ef3565b5b509050613f1c919061404a565b5090565b828054828255906000526020600020908101928215613f6f579160200282015b82811115613f6e578251829080519060200190613f5e929190613ea0565b5091602001919060010190613f40565b5b509050613f7c9190614067565b5090565b828054828255906000526020600020908101928215613fcf579160200282015b82811115613fce578251829080519060200190613fbe92919061408b565b5091602001919060010190613fa0565b5b509050613fdc919061410b565b5090565b82805482825590600052602060002090810192821561401c579160200282015b8281111561401b578251825591602001919060010190614000565b5b509050614029919061412f565b5090565b604051806040016040528060008019168152602001606081525090565b5b8082111561406357600081600090555060010161404b565b5090565b5b80821115614087576000818161407e919061414c565b50600101614068565b5090565b828054600181600116156101000203166002900490600052602060002090601f016020900481019282601f106140cc57805160ff19168380011785556140fa565b828001600101855582156140fa579182015b828111156140f95782518255916020019190600101906140de565b5b509050614107919061404a565b5090565b5b8082111561412b57600081816141229190614194565b5060010161410c565b5090565b5b80821115614148576000816000905550600101614130565b5090565b50805460018160011615610100020316600290046000825580601f106141725750614191565b601f016020900490600052602060002090810190614190919061404a565b5b50565b50805460018160011615610100020316600290046000825580601f106141ba57506141d9565b601f0160209004906000526020600020908101906141d8919061404a565b5b50565b600082601f8301126141ed57600080fd5b81356142006141fb82615afe565b615ad1565b9150818183526020840193506020810190508385602084028201111561422557600080fd5b60005b83811015614255578161423b888261442f565b845260208401935060208301925050600181019050614228565b5050505092915050565b600082601f83011261427057600080fd5b813561428361427e82615b26565b615ad1565b9150818183526020840193506020810190508360005b838110156142c957813586016142af8882614444565b845260208401935060208301925050600181019050614299565b5050505092915050565b600082601f8301126142e457600080fd5b81356142f76142f282615b4e565b615ad1565b9150818183526020840193506020810190508360005b8381101561433d57813586016143238882614498565b84526020840193506020830192505060018101905061430d565b5050505092915050565b600082601f83011261435857600080fd5b813561436b61436682615b76565b615ad1565b9150818183526020840193506020810190508360005b838110156143b1578135860161439788826144ec565b845260208401935060208301925050600181019050614381565b5050505092915050565b600082601f8301126143cc57600080fd5b81356143df6143da82615b9e565b615ad1565b9150818183526020840193506020810190508360005b83811015614425578135860161440b8882614746565b8452602084019350602083019250506001810190506143f5565b5050505092915050565b60008135905061443e81615e84565b92915050565b600082601f83011261445557600080fd5b813561446861446382615bc6565b615ad1565b9150808252602083016020830185838301111561448457600080fd5b61448f838284615e08565b50505092915050565b600082601f8301126144a957600080fd5b81356144bc6144b782615bf2565b615ad1565b915080825260208301602083018583830111156144d857600080fd5b6144e3838284615e08565b50505092915050565b600060a082840312156144fe57600080fd5b61450860a0615ad1565b9050600082013567ffffffffffffffff81111561452457600080fd5b61453084828501614498565b600083015250602082013567ffffffffffffffff81111561455057600080fd5b61455c84828501614498565b602083015250604061457084828501614896565b604083015250606061458484828501614896565b606083015250608061459884828501614896565b60808301525092915050565b600061010082840312156145b757600080fd5b6145c2610100615ad1565b905060006145d284828501614896565b600083015250602082013567ffffffffffffffff8111156145f257600080fd5b6145fe84828501614498565b602083015250604082013567ffffffffffffffff81111561461e57600080fd5b61462a84828501614498565b604083015250606082013567ffffffffffffffff81111561464a57600080fd5b61465684828501614498565b606083015250608061466a8482850161442f565b60808301525060a082013567ffffffffffffffff81111561468a57600080fd5b614696848285016142d3565b60a08301525060c082013567ffffffffffffffff8111156146b657600080fd5b6146c2848285016146e2565b60c08301525060e06146d68482850161486c565b60e08301525092915050565b6000604082840312156146f457600080fd5b6146fe6040615ad1565b9050600061470e8482850161442f565b600083015250602082013567ffffffffffffffff81111561472e57600080fd5b61473a8482850161425f565b60208301525092915050565b6000610100828403121561475957600080fd5b614764610100615ad1565b9050600082013567ffffffffffffffff81111561478057600080fd5b61478c84828501614498565b60008301525060206147a084828501614896565b60208301525060406147b484828501614896565b60408301525060606147c884828501614896565b60608301525060806147dc84828501614896565b60808301525060a082013567ffffffffffffffff8111156147fc57600080fd5b614808848285016146e2565b60a08301525060c082013567ffffffffffffffff81111561482857600080fd5b61483484828501614347565b60c08301525060e082013567ffffffffffffffff81111561485457600080fd5b61486084828501614347565b60e08301525092915050565b60008135905061487b81615e9b565b92915050565b60008135905061489081615eb2565b92915050565b6000813590506148a581615ec9565b92915050565b6000806000606084860312156148c057600080fd5b600084013567ffffffffffffffff8111156148da57600080fd5b6148e6868287016142d3565b935050602084013567ffffffffffffffff81111561490357600080fd5b61490f868287016141dc565b925050604061492086828701614881565b9150509250925092565b60008060006060848603121561493f57600080fd5b600084013567ffffffffffffffff81111561495957600080fd5b614965868287016142d3565b935050602084013567ffffffffffffffff81111561498257600080fd5b61498e868287016143bb565b925050604084013567ffffffffffffffff8111156149ab57600080fd5b6149b7868287016141dc565b9150509250925092565b600080600080608085870312156149d757600080fd5b600085013567ffffffffffffffff8111156149f157600080fd5b6149fd878288016142d3565b945050602085013567ffffffffffffffff811115614a1a57600080fd5b614a26878288016145a4565b935050604085013567ffffffffffffffff811115614a4357600080fd5b614a4f878288016143bb565b9250506060614a608782880161442f565b91505092959194509250565b600060208284031215614a7e57600080fd5b600082013567ffffffffffffffff811115614a9857600080fd5b614aa484828501614498565b91505092915050565b600080600060608486031215614ac257600080fd5b600084013567ffffffffffffffff811115614adc57600080fd5b614ae886828701614498565b935050602084013567ffffffffffffffff811115614b0557600080fd5b614b11868287016141dc565b9250506040614b2286828701614881565b9150509250925092565b600080600060608486031215614b4157600080fd5b600084013567ffffffffffffffff811115614b5b57600080fd5b614b6786828701614498565b9350506020614b788682870161442f565b9250506040614b898682870161442f565b9150509250925092565b60008060408385031215614ba657600080fd5b600083013567ffffffffffffffff811115614bc057600080fd5b614bcc85828601614498565b925050602083013567ffffffffffffffff811115614be957600080fd5b614bf585828601614498565b9150509250929050565b600080600060608486031215614c1457600080fd5b600084013567ffffffffffffffff811115614c2e57600080fd5b614c3a86828701614498565b935050602084013567ffffffffffffffff811115614c5757600080fd5b614c6386828701614498565b9250506040614c748682870161442f565b9150509250925092565b600080600080600060a08688031215614c9657600080fd5b600086013567ffffffffffffffff811115614cb057600080fd5b614cbc88828901614498565b955050602086013567ffffffffffffffff811115614cd957600080fd5b614ce588828901614498565b9450506040614cf688828901614896565b9350506060614d0788828901614896565b9250506080614d1888828901614896565b9150509295509295909350565b600080600060608486031215614d3a57600080fd5b600084013567ffffffffffffffff811115614d5457600080fd5b614d6086828701614498565b935050602084013567ffffffffffffffff811115614d7d57600080fd5b614d8986828701614746565b9250506040614d9a8682870161442f565b9150509250925092565b6000614db08383615051565b905092915050565b6000614dc48383615170565b905092915050565b6000614dd883836151e2565b905092915050565b6000614dec83836154c0565b905092915050565b6000614e00838361553d565b905092915050565b6000614e1382615c83565b614e1d8185615d11565b935083602082028501614e2f85615c1e565b8060005b85811015614e6b5784840389528151614e4c8582614da4565b9450614e5783615cd0565b925060208a01995050600181019050614e33565b50829750879550505050505092915050565b6000614e8882615c8e565b614e928185615d22565b935083602082028501614ea485615c2e565b8060005b85811015614ee05784840389528151614ec18582614db8565b9450614ecc83615cdd565b925060208a01995050600181019050614ea8565b50829750879550505050505092915050565b6000614efd82615c99565b614f078185615d33565b935083602082028501614f1985615c3e565b8060005b85811015614f555784840389528151614f368582614dcc565b9450614f4183615cea565b925060208a01995050600181019050614f1d565b50829750879550505050505092915050565b6000614f7282615c99565b614f7c8185615d44565b935083602082028501614f8e85615c3e565b8060005b85811015614fca5784840389528151614fab8582614dcc565b9450614fb683615cea565b925060208a01995050600181019050614f92565b50829750879550505050505092915050565b6000614fe782615ca4565b614ff18185615d55565b93508360208202850161500385615c4e565b8060005b8581101561503f57848403895281516150208582614de0565b945061502b83615cf7565b925060208a01995050600181019050615007565b50829750879550505050505092915050565b600061505c82615caf565b6150668185615d66565b93508360208202850161507885615c5e565b8060005b858110156150b457848403895281516150958582614df4565b94506150a083615d04565b925060208a0199505060018101905061507c565b50829750879550505050505092915050565b60006150d182615caf565b6150db8185615d77565b9350836020820285016150ed85615c5e565b8060005b85811015615129578484038952815161510a8582614df4565b945061511583615d04565b925060208a019950506001810190506150f1565b50829750879550505050505092915050565b61514481615dd7565b82525050565b61515381615dd7565b82525050565b61516a61516582615dd7565b615e4a565b82525050565b600061517b82615cba565b6151858185615d88565b9350615195818560208601615e17565b61519e81615e66565b840191505092915050565b60006151b482615cba565b6151be8185615d99565b93506151ce818560208601615e17565b6151d781615e66565b840191505092915050565b60006151ed82615cc5565b6151f78185615daa565b9350615207818560208601615e17565b61521081615e66565b840191505092915050565b600061522682615cc5565b6152308185615dcc565b9350615240818560208601615e17565b80840191505092915050565b600081546001811660008114615269576001811461528e576152d2565b607f600283041661527a8187615dcc565b955060ff19831686528086019350506152d2565b6002820461529c8187615dcc565b95506152a785615c6e565b60005b828110156152c9578154818901526001820191506020810190506152aa565b82880195505050505b505092915050565b60006152e7601783615dbb565b91507f496e7465726661636520646f65736e27742065786973740000000000000000006000830152602082019050919050565b6000615327601883615dbb565b91507f446570656e64656e637920646f65736e277420657869737400000000000000006000830152602082019050919050565b6000615367602483615dbb565b91507f596f7520617265206e6f7420746865206f776e6572206f662074686973206d6f60008301527f64756c65000000000000000000000000000000000000000000000000000000006020830152604082019050919050565b60006153cd601983615dbb565b91507f546865206d6f64756c6520646f6573206e6f74206578697374000000000000006000830152602082019050919050565b600061540d601583615dbb565b91507f56657273696f6e20646f65736e277420657869737400000000000000000000006000830152602082019050919050565b600061544d602083615dbb565b91507f4e756d626572206f6620656c656d656e7473206d75737420626520657175616c6000830152602082019050919050565b600061548d601983615dbb565b91507f546865206d6f64756c6520616c726561647920657869737473000000000000006000830152602082019050919050565b600060a08301600083015184820360008601526154dd82826151e2565b915050602083015184820360208601526154f782826151e2565b915050604083015161550c60408601826157f5565b50606083015161551f60608601826157f5565b50608083015161553260808601826157f5565b508091505092915050565b60006101008301600083015161555660008601826157f5565b506020830151848203602086015261556e82826151e2565b9150506040830151848203604086015261558882826151e2565b915050606083015184820360608601526155a282826151e2565b91505060808301516155b7608086018261513b565b5060a083015184820360a08601526155cf8282614ef2565b91505060c083015184820360c08601526155e982826156d5565b91505060e08301516155fe60e08601826157d7565b508091505092915050565b60006101008301600083015161562260008601826157f5565b506020830151848203602086015261563a82826151e2565b9150506040830151848203604086015261565482826151e2565b9150506060830151848203606086015261566e82826151e2565b9150506080830151615683608086018261513b565b5060a083015184820360a086015261569b8282614ef2565b91505060c083015184820360c08601526156b582826156d5565b91505060e08301516156ca60e08601826157d7565b508091505092915050565b60006040830160008301516156ed600086018261513b565b50602083015184820360208601526157058282614e7d565b9150508091505092915050565b600061010083016000830151848203600086015261573082826151e2565b915050602083015161574560208601826157f5565b50604083015161575860408601826157f5565b50606083015161576b60608601826157f5565b50608083015161577e60808601826157f5565b5060a083015184820360a086015261579682826156d5565b91505060c083015184820360c08601526157b08282614fdc565b91505060e083015184820360e08601526157ca8282614fdc565b9150508091505092915050565b6157e081615de1565b82525050565b6157ef81615deb565b82525050565b6157fe81615dfb565b82525050565b61580d81615dfb565b82525050565b61582461581f82615dfb565b615e54565b82525050565b6000615836828461521b565b915081905092915050565b600061584d828561521b565b91506158598284615159565b6020820191508190509392505050565b6000615875828561521b565b9150615881828461521b565b91508190509392505050565b6000615899828861521b565b91506158a5828761521b565b91506158b18286615813565b6001820191506158c18285615813565b6001820191506158d18284615813565b6001820191508190509695505050505050565b60006158f0828461524c565b915081905092915050565b600060208201905081810360008301526159158184614e08565b905092915050565b600060608201905081810360008301526159378186614f67565b9050615946602083018561514a565b61595360408301846157e6565b949350505050565b6000602082019050818103600083015261597581846150c6565b905092915050565b6000602082019050818103600083015261599781846151a9565b905092915050565b600060208201905081810360008301526159b8816152da565b9050919050565b600060208201905081810360008301526159d88161531a565b9050919050565b600060208201905081810360008301526159f88161535a565b9050919050565b60006020820190508181036000830152615a18816153c0565b9050919050565b60006020820190508181036000830152615a3881615400565b9050919050565b60006020820190508181036000830152615a5881615440565b9050919050565b60006020820190508181036000830152615a7881615480565b9050919050565b60006020820190508181036000830152615a998184615609565b905092915050565b60006040820190508181036000830152615abb8185615712565b9050615aca6020830184615804565b9392505050565b6000604051905081810181811067ffffffffffffffff82111715615af457600080fd5b8060405250919050565b600067ffffffffffffffff821115615b1557600080fd5b602082029050602081019050919050565b600067ffffffffffffffff821115615b3d57600080fd5b602082029050602081019050919050565b600067ffffffffffffffff821115615b6557600080fd5b602082029050602081019050919050565b600067ffffffffffffffff821115615b8d57600080fd5b602082029050602081019050919050565b600067ffffffffffffffff821115615bb557600080fd5b602082029050602081019050919050565b600067ffffffffffffffff821115615bdd57600080fd5b601f19601f8301169050602081019050919050565b600067ffffffffffffffff821115615c0957600080fd5b601f19601f8301169050602081019050919050565b6000819050602082019050919050565b6000819050602082019050919050565b6000819050602082019050919050565b6000819050602082019050919050565b6000819050602082019050919050565b60008190508160005260206000209050919050565b600081519050919050565b600081519050919050565b600081519050919050565b600081519050919050565b600081519050919050565b600081519050919050565b600081519050919050565b6000602082019050919050565b6000602082019050919050565b6000602082019050919050565b6000602082019050919050565b6000602082019050919050565b600082825260208201905092915050565b600082825260208201905092915050565b600082825260208201905092915050565b600082825260208201905092915050565b600082825260208201905092915050565b600082825260208201905092915050565b600082825260208201905092915050565b600082825260208201905092915050565b600082825260208201905092915050565b600082825260208201905092915050565b600082825260208201905092915050565b600081905092915050565b6000819050919050565b6000819050919050565b600063ffffffff82169050919050565b600060ff82169050919050565b82818337600083830152505050565b60005b83811015615e35578082015181840152602081019050615e1a565b83811115615e44576000848401525b50505050565b6000819050919050565b6000615e5f82615e77565b9050919050565b6000601f19601f8301169050919050565b60008160f81b9050919050565b615e8d81615dd7565b8114615e9857600080fd5b50565b615ea481615de1565b8114615eaf57600080fd5b50565b615ebb81615deb565b8114615ec657600080fd5b50565b615ed281615dfb565b8114615edd57600080fd5b5056fea264697066735822122039c477c7d01d9de38220f1c8db3f534f3568394e59aa9b0fc1ee6e73794eda5364736f6c634300060c0033",
  "immutableReferences": {},
  "source": "// SPDX-License-Identifier: MIT\npragma solidity ^0.6.4;\npragma experimental ABIEncoderV2;\ncontract DappletRegistry {\n\n    event ModuleInfoAdded (\n        string[] contextIds,\n        bytes32 owner,\n        uint32 moduleIndex\n    );\n    \n    struct StorageRef {\n        bytes32 hash;\n        bytes[] uris; //use 2 leading bytes as prefix\n    }\n\n    // ToDo: introduce mapping for alternative sources,\n    struct ModuleInfo {\n        uint8 moduleType;\n        string name;\n        string title;\n        string description;\n        bytes32 owner;\n        string[] interfaces; //Exported interfaces in all versions. no duplicates.\n        StorageRef icon;\n        uint flags;\n    }\n\n    struct VersionInfo {\n        uint  modIdx;\n        string branch;\n        uint8 major;\n        uint8 minor;\n        uint8 patch;\n        uint8 flags;\n        StorageRef binary;\n        bytes32[] dependencies; // key of module \n        bytes32[] interfaces; //Exported interfaces. no duplicates.\n    }\n    \n    struct VersionInfoDto {\n        string branch;\n        uint8 major;\n        uint8 minor;\n        uint8 patch;\n        uint8 flags;\n        StorageRef binary;\n        DependencyDto[] dependencies; // key of module \n        DependencyDto[] interfaces; //Exported interfaces. no duplicates.\n    }\n    \n    struct DependencyDto {\n        string name;\n        string branch;\n        uint8 major;\n        uint8 minor;\n        uint8 patch;\n    }\n\n    mapping(bytes32 => bytes) versionNumbers; // keccak(name,branch) => <bytes4[]> versionNumbers\n    mapping(bytes32 => VersionInfo) versions; // keccak(name,branch,major,minor,patch) => VersionInfo>\n    mapping(bytes32 => uint32[]) modsByContextType; // key - keccak256(contextId, owner), value - index of element in \"modules\" array\n    mapping(bytes32 => uint32) moduleIdxs;\n    ModuleInfo[] modules;\n\n    constructor() public {\n        modules.push(); // Zero index is reserved\n    }\n\n    function getModuleInfoBatch(string[] memory ctxIds, bytes32[] memory users, uint32 maxBufLen) public view returns (ModuleInfo[][] memory mod_info) {\n        mod_info = new ModuleInfo[][](ctxIds.length);\n        for (uint i = 0; i < ctxIds.length; ++i) {\n            mod_info[i] = getModuleInfo(ctxIds[i], users, maxBufLen);\n        }\n    }\n\n    //Very naive impl.\n    function getModuleInfo(string memory ctxId, bytes32[] memory users, uint32 maxBufLen) public view returns (ModuleInfo[] memory mod_info) {\n        uint[] memory outbuf = new uint[]( maxBufLen > 0 ? maxBufLen : 1000 );\n        uint bufLen = _fetchModulesByUsersTag(ctxId, users, outbuf, 0);\n        mod_info = new ModuleInfo[](bufLen);\n        for(uint i = 0; i < bufLen; ++i) {\n            uint idx = outbuf[i];\n            mod_info[i] = modules[idx]; // WARNING! indexes are started from 1.\n            //ToDo: strip contentType indexes?\n        }\n    }\n\n    function getModuleInfoByName(string memory mod_name) public view returns (ModuleInfo memory) {\n        bytes32 mKey = keccak256(abi.encodePacked(mod_name));\n        require(moduleIdxs[mKey] != 0, 'The module does not exist');\n        return modules[moduleIdxs[mKey]];\n    }\n        \n    function addModuleInfo(string[] memory contextIds, ModuleInfo memory mInfo, VersionInfoDto[] memory vInfos, bytes32 userId) public {\n        require(_isEnsOwner(userId));\n        bytes32 mKey = keccak256(abi.encodePacked(mInfo.name));\n        require(moduleIdxs[mKey] == 0, 'The module already exists'); // module does not exist\n        bytes32 owner = userId == 0 ? bytes32(uint(msg.sender)) : userId;\n        \n        // ModuleInfo adding\n        mInfo.owner = owner;\n        modules.push(mInfo);\n        uint32 mIdx = uint32(modules.length - 1); // WARNING! indexes are started from 1.\n        moduleIdxs[mKey] = mIdx;\n        \n        // ContextId adding\n        for (uint i = 0; i < contextIds.length; ++i) {\n            bytes32 key = keccak256(abi.encodePacked(contextIds[i], owner));\n            modsByContextType[key].push(mIdx);\n        }\n        \n        emit ModuleInfoAdded(contextIds, owner, mIdx);\n        \n        // Versions Adding\n        for (uint i = 0; i < vInfos.length; ++i) {\n            _addModuleVersionNoChecking(mIdx, mInfo.name, vInfos[i]);\n        }\n    }\n    \n    function addModuleVersion(string memory mod_name, VersionInfoDto memory vInfo, bytes32 userId) public {\n        require(_isEnsOwner(userId));\n        // ******** TODO: check existing versions and version sorting\n        bytes32 owner = userId == 0 ? bytes32(uint(msg.sender)) : userId;\n        bytes32 mKey = keccak256(abi.encodePacked(mod_name));\n        uint32 moduleIdx = moduleIdxs[mKey];\n        require(moduleIdx != 0, 'The module does not exist');\n        ModuleInfo storage m = modules[moduleIdx]; // WARNING! indexes are started from 1.\n        require(m.owner == owner, 'You are not the owner of this module');\n        \n        _addModuleVersionNoChecking(moduleIdx, mod_name, vInfo);\n    }\n\n    function addModuleVersionBatch(string[] memory mod_name, VersionInfoDto[] memory vInfo, bytes32[] memory userId) public {\n        require(mod_name.length == vInfo.length && vInfo.length == userId.length, \"Number of elements must be equal\");\n        for (uint i = 0; i < mod_name.length; ++i) {\n            addModuleVersion(mod_name[i], vInfo[i], userId[i]);\n        }\n    }\n    \n    function getVersionNumbers(string memory name, string memory branch) public view returns (bytes memory) {\n        bytes32 key = keccak256(abi.encodePacked(name, branch));\n        return versionNumbers[key];\n    } \n    \n    // instead of resolveToManifest\n    function getVersionInfo(string memory name, string memory branch, uint8 major, uint8 minor, uint8 patch) public view returns (VersionInfoDto memory dto, uint8 moduleType) {\n        bytes32 key = keccak256(abi.encodePacked(name, branch, major, minor, patch));\n        VersionInfo memory v = versions[key];\n        require(v.modIdx != 0, \"Version doesn't exist\");\n        \n        DependencyDto[] memory deps = new DependencyDto[](v.dependencies.length);\n        for (uint i = 0; i < v.dependencies.length; ++i) {\n            VersionInfo memory depVi = versions[v.dependencies[i]];\n            ModuleInfo memory depMod = modules[depVi.modIdx];\n            deps[i] = DependencyDto(depMod.name, depVi.branch, depVi.major, depVi.minor, depVi.patch);\n        }\n\n        DependencyDto[] memory interfaces = new DependencyDto[](v.interfaces.length);\n        for (uint i = 0; i < v.interfaces.length; ++i) {\n            VersionInfo memory intVi = versions[v.interfaces[i]];\n            ModuleInfo memory intMod = modules[intVi.modIdx];\n            interfaces[i] = DependencyDto(intMod.name, intVi.branch, intVi.major, intVi.minor, intVi.patch);\n        }\n        \n        dto = VersionInfoDto(v.branch, v.major, v.minor, v.patch, v.flags, v.binary, deps, interfaces);\n        moduleType = modules[v.modIdx].moduleType;\n    }\n    \n    // function getVersions(string memory name, string memory branch) public view returns (VersionInfo[] memory out) {\n    //     bytes memory versionBytes = getVersionNumbers(name,branch);\n    //     out = new VersionInfo[](versionBytes.length/4);\n    //     for(uint i=0; i<versionBytes.length; i+=4){\n    //        bytes32 key = keccak256(abi.encodePacked(name, branch, versionBytes[i], versionBytes[i+1], versionBytes[i+2]));  //OPTIMIZE IT! mit assebly?\n    //        out[i>>2] = versions[key];\n    //     }\n    // }\n\n    function transferOwnership(string memory mod_name, bytes32 oldUserId, bytes32 newUserId) public {\n        require(_isEnsOwner(oldUserId));\n        require(_isEnsOwner(newUserId));\n        bytes32 oldOwnerId = oldUserId == 0 ? bytes32(uint(msg.sender)) : oldUserId;\n        bytes32 mKey = keccak256(abi.encodePacked(mod_name));\n        uint32 moduleIdx = moduleIdxs[mKey];\n        require(moduleIdx != 0, 'The module does not exist');\n        ModuleInfo storage m = modules[moduleIdx]; // WARNING! indexes are started from 1.\n        require(m.owner == oldOwnerId, 'You are not the owner of this module');\n        \n        m.owner = newUserId;\n    }\n\n    function addContextId(string memory mod_name, string memory contextId, bytes32 userId) public {\n        require(_isEnsOwner(userId));\n        bytes32 owner = userId == 0 ? bytes32(uint(msg.sender)) : userId;\n        bytes32 mKey = keccak256(abi.encodePacked(mod_name));\n        uint32 moduleIdx = moduleIdxs[mKey];\n        require(moduleIdx != 0, 'The module does not exist');\n        ModuleInfo storage m = modules[moduleIdx]; // WARNING! indexes are started from 1.\n        require(m.owner == owner, 'You are not the owner of this module');\n\n        // ContextId adding\n        bytes32 key = keccak256(abi.encodePacked(contextId, owner));\n        modsByContextType[key].push(moduleIdx);\n    }\n\n    function removeContextId(string memory mod_name, string memory contextId, bytes32 userId) public {\n        require(_isEnsOwner(userId));\n        bytes32 owner = userId == 0 ? bytes32(uint(msg.sender)) : userId;\n        bytes32 mKey = keccak256(abi.encodePacked(mod_name));\n        uint32 moduleIdx = moduleIdxs[mKey];\n        require(moduleIdx != 0, 'The module does not exist');\n        ModuleInfo storage m = modules[moduleIdx]; // WARNING! indexes are started from 1.\n        require(m.owner == owner, 'You are not the owner of this module');\n\n        // ContextId adding\n        bytes32 key = keccak256(abi.encodePacked(contextId, owner));\n        uint32[] storage modules = modsByContextType[key];\n\n        for (uint i = 0; i < modules.length; ++i) {\n            if (modules[i] == moduleIdx) {\n                modules[i] = modules[modules.length - 1];\n                modules.pop();\n                break;\n            }\n        }\n    }\n\n    function _fetchModulesByUsersTags(string[] memory interfaces, bytes32[] memory users, uint[] memory outbuf, uint _bufLen) internal view returns (uint) {\n        uint bufLen = _bufLen;\n        \n        for (uint i = 0; i < interfaces.length; ++i) {\n            bufLen = _fetchModulesByUsersTag(interfaces[i], users, outbuf, bufLen);\n        }\n        \n        return bufLen;\n    }\n\n    // ctxId - URL or ContextType [IdentityAdapter]\n    function _fetchModulesByUsersTag(string memory ctxId, bytes32[] memory users, uint[] memory outbuf, uint _bufLen) internal view returns (uint) {\n        uint bufLen = _bufLen;\n        for (uint i = 0; i < users.length; ++i) {\n            bytes32 key = keccak256(abi.encodePacked(ctxId, users[i]));\n            uint32[] memory modIdxs = modsByContextType[key];\n            //add if no duplicates in buffer[0..nn-1]\n            uint lastBufLen = bufLen;\n            for(uint j = 0; j < modIdxs.length; ++j) {\n                uint modIdx = modIdxs[j];\n                uint k = 0;\n                for(; k < lastBufLen; ++k) {\n                    if (outbuf[k] == modIdx) break; //duplicate found\n                }\n                if (k == lastBufLen) { //no duplicates found  -- add the module's index\n                    outbuf[bufLen++] = modIdx;\n                    ModuleInfo memory m = modules[modIdx];\n                    bufLen = _fetchModulesByUsersTag(m.name, users, outbuf, bufLen); // using index as a tag.\n                    bufLen = _fetchModulesByUsersTags(m.interfaces, users, outbuf, bufLen);\n                    //ToDo: what if owner changes? CREATE MODULE ENS  NAMES! on creating ENS  \n                }\n            }\n        }\n        return bufLen;\n    }\n    \n    function _addModuleVersionNoChecking(uint moduleIdx, string memory mod_name, VersionInfoDto memory v) private {\n        bytes32[] memory deps = new bytes32[](v.dependencies.length);\n        for (uint i = 0; i < v.dependencies.length; ++i) {\n            DependencyDto memory d = v.dependencies[i];\n            bytes32 dKey = keccak256(abi.encodePacked(d.name, d.branch, d.major, d.minor, d.patch));\n            require(versions[dKey].modIdx != 0, \"Dependency doesn't exist\");\n            deps[i] = dKey;\n        }\n\n        bytes32[] memory interfaces = new bytes32[](v.interfaces.length);\n        for (uint i = 0; i < v.interfaces.length; ++i) {\n            DependencyDto memory interf = v.interfaces[i];\n            bytes32 iKey = keccak256(abi.encodePacked(interf.name, interf.branch, interf.major, interf.minor, interf.patch));\n            require(versions[iKey].modIdx != 0, \"Interface doesn't exist\");\n            interfaces[i] = iKey;\n            \n            // add interface name to ModuleInfo if not exist\n            bool isInterfaceExist = false;\n            for (uint j = 0; j < modules[moduleIdx].interfaces.length; ++j) {\n                if (keccak256(abi.encodePacked(modules[moduleIdx].interfaces[j])) == keccak256(abi.encodePacked(interf.name))) {\n                    isInterfaceExist = true;\n                    break;\n                }\n            }\n\n            if (isInterfaceExist == false) {\n                modules[moduleIdx].interfaces.push(interf.name);\n            }\n        }\n        \n        VersionInfo memory vInfo = VersionInfo(moduleIdx, v.branch, v.major, v.minor, v.patch, v.flags, v.binary, deps, interfaces);\n        bytes32 vKey = keccak256(abi.encodePacked(mod_name, v.branch, v.major, v.minor, v.patch));\n        versions[vKey] = vInfo;\n        \n        bytes32 nbKey = keccak256(abi.encodePacked(mod_name, vInfo.branch));\n        versionNumbers[nbKey].push(byte(vInfo.major));\n        versionNumbers[nbKey].push(byte(vInfo.minor));\n        versionNumbers[nbKey].push(byte(vInfo.patch));\n        versionNumbers[nbKey].push(byte(0x0));\n    }\n    \n    function _isEnsOwner(bytes32 userId) private pure returns(bool) {\n        return userId >= 0; //ToDo: NOT_IMPLEMENTED\n    }\n\n    /*\n    \n    FUNCTIONS TO BE IMPLEMENTED:\n    \n    +function getManifests(string memory location, bytes32[] memory users) public view returns (ModuleInfo[] memory) { } // for popup\n    +function getModules(string memory location, bytes32[] memory users) public view returns (string[] memory) { }\n    +function getVersions(string memory name, string memory branch) public view returns (string[] memory) { }\n    +function resolveToManifest(string memory name, string memory branch, string memory version) public view returns (VersionInfo memory) { }\n    +function addModule(Manifest memory manifest) public { }\n    +function transferOwnership(string memory moduleName, address newOwner) public { }\n    +function addLocation(string memory moduleName, string memory location) public { }\n    +function removeLocation(string memory location, uint256 moduleNameIndex, string memory moduleName) public { }\n    function addDistUri(string memory name, string memory branch, string memory version, string memory distUri) public { }\n    function removeHashUri(string memory name, string memory branch, string memory version, string memory distUri) public { }\n    \n    */\n}",
  "sourcePath": "/home/birchmd/upstream/dapplet-registry/contracts/DappletRegistry.sol",
  "compiler": {
    "name": "solc",
    "version": "0.6.12+commit.27d51765.Emscripten.clang"
  },
  "schemaVersion": "3.4.3",
  "updatedAt": "2021-11-17T20:09:04.916Z",
  "devdoc": {
    "kind": "dev",
    "methods": {},
    "version": 1
  },
  "userdoc": {
    "kind": "user",
    "methods": {},
    "version": 1
  }
}